:0300000002081BD8
:0100030032CA
:0100130032BA
:03001B0002038954
:0100230032AA
:03002B000204814B
:10002E00C00078B10000D8FCD00022C000C0017919
:10003E002D78A6D8FED9FADAF6D001D00022D2B3A6
:10004E0012002EC2B322A2E792B7A2E692B6A2E5A2
:10005E0092B5A2E492B412004C12002EA2E392B713
:10006E00A2E292B6A2E192B5A2E092B412004C22A4
:10007E00D2B2020054C2B2020054C2B374331200A0
:10008E008374331200837432120083742812008337
:10009E00740C1200837401120083C0027A021200E3
:1000AE0039D00222E493600612007EA380F6224429
:1000BE00404480020083C0E0E8C4540F4430120074
:0C00CE007EE8540F443012007ED0E02287
:1000DA00C0E0C0D0C000C001C002E4F542F543F55B
:1000EA0044F545F5467A20E533A2E779047830E607
:1000FA0033F608D9FA79057842E636D4F608D9F9FA
:10010A00DAE5D002D001D000D0D0D0E022C0E0C0E1
:10011A00D0C000C001C002E4F542F543F544F545FC
:10012A00F5467A20E533A2E779047830E633F60813
:10013A00D9FA79057842C0D0E6243320E70224D0E0
:10014A0020E30224FDD0D033F608D9EADAD6D00269
:10015A00D001D000D0D0D0E022C0E0C0D0C000C0D2
:10016A0001C0027A207905C37846E613C0D030E789
:10017A000224D030E30224FDF618D0D0D9EC790459
:10018A007833E613F618D9FADADBD002D001D000B8
:10019A00D0D0D0E022C0E0C0D0E5302534F530E53B
:1001AA00313535F531E5323536F532E5333537F562
:1001BA0033D0D0D0E022C0E0C0D0C3E5309534F5CA
:1001CA0030E5319535F531E5329536F532E5339539
:1001DA0037F533D0D0D0E022C0E0C0D0C3E53095A7
:1001EA0034E5319535E5329536E53395379200D0C9
:1001FA00D0D0E022C0E0C0D0C3E5349530E53595D3
:10020A0031E5369532E53795339200D0D0D0E022E9
:10021A00C0E0C0D0C200C3E53495307014E535950E
:10022A0031700EE53695327008E53795337002D293
:10023A0000D0D0D0E02212021A2000030201FE22CE
:10024A0012021A2000030201E222C0E0C0F0C0D06C
:10025A00C000C001C002C003E5308534F0A4F8A98B
:10026A00F0E5318534F0A429F9E435F0FAE5308572
:10027A0035F0A429F9E5F03AFAE433FBE53285349E
:10028A00F0A42AFAE5F03BFBE5318535F0A42AFA19
:10029A00E5F03BFBE5308536F0A42AFAE5F03BFBB6
:1002AA00E5338534F0A42BFBE5328535F0A42BFB2E
:1002BA00E5318536F0A42BFBE5308537F0A42BFB1E
:1002CA008B338A3289318830D003D002D001D000F2
:1002DA00D0D0D0F0D0E022C0E0C0D0C000C001C071
:1002EA0002C003C0047C20E4F8F9FAFBC3E530330A
:1002FA00F530E53133F531E53233F532E53333F5AF
:10030A0033E833F8E933F9EA33FAEB33FBC3E89518
:10031A0034E99535EA9536EB95374013E89534F884
:10032A00E99535F9EA9536FAEB9537FB433001DC66
:10033A00BBD004D003D002D001D000D0D0D0E0226C
:10034A0053CECE43CF31D2A1D2A5C2A0C2A65389E1
:10035A000F438910758DFC758B1575F5FC75F315B2
:10036A00D2AB75A5A075A43A75AD8075AC0043A44F
:10037A0040E5A420E6FBD2AF75E60075E7FF22C090
:10038A00E0C0D0E54B454C454D601E74FF154BB59A
:10039A004B07154CB54C02154DD2A612040FF58029
:1003AA002480F5AD43A440800CC28ED2A5C2A675A6
:1003BA00AD8043A440D0D0D0E03212016375340539
:1003CA007535007536007537001202E175342275ED
:1003DA003556753600753700120254C28ED2A5C240
:1003EA00A6C2A5740312040FE53212040FE53112F6
:1003FA00040FE53012040F754D00754C56754B20ED
:10040A00D2A6D28E223392A4D2A0A2A1C2A092E0F6
:10041A003392A4D2A0A2A1C2A092E03392A4D2A005
:10042A00A2A1C2A092E03392A4D2A0A2A1C2A09299
:10043A00E03392A4D2A0A2A1C2A092E03392A4D2A5
:10044A00A0A2A1C2A092E03392A4D2A0A2A1C2A06B
:10045A0092E03392A4D2A0A2A1C2A092E02275C8CF
:10046A000075CDA975CC9A75CBA975CA9AE4F54ED3
:10047A00F54FD2ADD2CA22C2CFB290C0E0C0D005E9
:10048A004EE54E7002054FE54EB46446E54FB400A2
:10049A0041D201E4F54EF54FE550B409147400D485
:1004AA00F550D202E551B499157400D4F5510204FD
:1004BA00912401D4F550B552CED29102049124016F
:1004CA00D4F551E552D291B40003020491C29102CB
:1004DA000491D0D0D0E0322499D4F550D2A2C2A34C
:1004EA0022C0E079007A08E833F892A1D2A3A2A246
:1004FA00E933F9C2A3DAF0D0E02279DE78A6D8FE91
:10050A00D9FA438780759852759B00759AF4759B42
:10051A001E223099FDC299F59922E49360061205CC
:10052A001CA380F62275F06484443012051CE5F0A1
:10053A0075F00A84443012051CE5F0443012051C9B
:10054A0022C2A078011204EBE5F0C454F0D2E7F815
:10055A001204EBE95403FF78551204EBE9FED2A02A
:10056A0022C0E0E8C4540F443012051CE8540F447A
:10057A003012051CD0E02275F06484443012007EEB
:10058A00E5F075F00A84443012007EE5F04430123A
:10059A00007E2275D108907F80E538F0A3E539F016
:1005AA00A3E53AF0A3E53BF0A37455F0A374AAF0CF
:1005BA00A375D10043D24075D15075D1A075D10031
:1005CA0053D2BF2275386475390A753AC8753B0A21
:1005DA0022907F84E493F8A3B855E9E493F8A3B88A
:1005EA00AAE2907F80E493F538A3E493F539A3E473
:1005FA0093F53AA3E493F53BA3227B0A7A64792D17
:10060A0078A6D8FED9FADAF6DBF222784AD8FE22A0
:10061A007530007531007532007533007D6475F0F0
:10062A000012054B7537007536008F358E3412016E
:10063A009F120615DDE87534647535007536007548
:10064A0037001202E122854730854831753200753C
:10065A00330075340075351075360075370012028F
:10066A00547534F37535337536007537001202E167
:10067A0075341675350075360075370012019F8579
:10068A003042E530F53D1200DA1206B3C000A84345
:10069A0012056BD000C000A84212056BD000740D81
:1006AA0012051C740A12051C22C0E07409141200F7
:1006BA00BFD0E0C000A8431200C4D000C000A842C6
:1006CA001200C4D0002248656C6C6F2C20576F72E0
:1006DA006C64210D0A005374617274696E67207428
:1006EA00656D7065726174757265206D656173758B
:1006FA0072656D656E74732E2E2E0D0A0052656634
:10070A006C6F77204F76656E00436F6E74726F6CF4
:10071A006C6572002020202020202020202020200C
:10072A002020202000536574205265666C6F772064
:10073A00437572766500506172616D657465727396
:10074A00202020202020002E202020005365742005
:10075A00536F616B2054656D702020200020432068
:10076A002020202020202020202020202000536527
:10077A007420536F616B2054696D6520202000201E
:10078A0053656320202020202020202020202000C4
:10079A00536574205265666C6F772054656D7020BE
:1007AA00002043202020202020202020202020203C
:1007BA002000536574205265666C6F772054696D0A
:1007CA00652000205365632020202020202020203F
:1007DA002020200046534D206E6F7420636F6D7089
:1007EA006C65746500436F6E6669726D205365743B
:1007FA0074696E677300202054454D503A2078780A
:10080A007820432020202000543A00503A00533ADE
:10081A000075817F75E60075E70075CE0075CF001B
:10082A0075C60075C70075BE0075BF001200881234
:10083A0005DBC0E07403141200BFD0E0C083C0829D
:10084A00C0E09007071200B2D0E0D082D083C0E0A7
:10085A007403141200BDD0E0C083C082C0E09007C8
:10086A00131200B2D0E0D082D08312060475500071
:10087A00755100754100753C3CC0E07401141200CA
:10088A00BFD0E0C083C082C0E090072F1200B2D070
:10089A00E0D082D083C0E07401141200BDD0E0C061
:1008AA0083C082C0E09007401200B2D0E0D082D06C
:1008BA0083120604C0E0740B141200BDD0E0C0839A
:1008CA00C082C0E09007511200B2D0E0D082D0833B
:1008DA00120604C0E0740C141200BDD0E0C083C03C
:1008EA0082C0E09007511200B2D0E0D082D08312C9
:1008FA000604C0E0740D141200BDD0E0C083C082AB
:10090A00C0E09007511200B2D0E0D082D083120624
:10091A0004C0E07401141200BFD0E0C083C082C0DA
:10092A00E09007561200B2D0E0D082D083C0E074C3
:10093A0004141200BDD0E0C083C082C0E0900767F3
:10094A001200B2D0E0D082D083C0E0740114120049
:10095A00BDD0E0E53812058120A423C0027A6412D2
:10096A000039D00220A41730A4FD2086041538804F
:10097A000A0538053805380538053812059D2084DA
:10098A0012C0027A64120039D0022084063084FD33
:10099A00020B7720A60FC0027A64120039D0022017
:1009AA00A60330A60302091BC0E07401141200BF9B
:1009BA00D0E0C083C082C0E09007781200B2D0E0D5
:1009CA00D082D083C0E07404141200BDD0E0C0838A
:1009DA00C082C0E09007891200B2D0E0D082D083F2
:1009EA00C0E07401141200BDD0E0E539120581207F
:1009FA00A423C0027A64120039D00220A41730A4BA
:100A0A00FD2086041539800A053905390539053965
:100A1A00053912059D208412C0027A64120039D069
:100A2A00022084063084FD020B7720A60FC0027ACA
:100A3A0064120039D00220A60330A6030209B2C00C
:100A4A00E07401141200BFD0E0C083C082C0E090FD
:100A5A00079A1200B2D0E0D082D083C0E0740414A6
:100A6A001200BDD0E0C083C082C0E09007AB120084
:100A7A00B2D0E0D082D083C0E07401141200BDD09D
:100A8A00E0E53A12058120A423C0027A64120039F3
:100A9A00D00220A41730A4FD208604153A800A0546
:100AAA003A053A053A053A053A12059D208412C0DC
:100ABA00027A64120039D0022084063084FD020BC7
:100ACA007720A60FC0027A64120039D00220A6034A
:100ADA0030A603020A49C0E07401141200BFD0E034
:100AEA00C083C082C0E09007BC1200B2D0E0D082BE
:100AFA00D083C0E07404141200BDD0E0C083C08269
:100B0A00C0E09007CD1200B2D0E0D082D083C0E01E
:100B1A007401141200BDD0E0E53B12058120A42324
:100B2A00C0027A64120039D00220A41730A4FD2032
:100B3A008604153B800A053B053B053B053B053B07
:100B4A0012059D20840FC0027A64120039D0022057
:100B5A00840330841820A60FC0027A64120039D0A8
:100B6A000220A60330A603020AE002091BC0E074B1
:100B7A0001141200BFD0E0C083C082C0E09007EF2A
:100B8A001200B2D0E0D082D083C0E0740114120007
:100B9A00BDD0E0E538120581C0E07405141200BD2D
:100BAA00D0E0E539120581C0E07409141200BDD005
:100BBA00E0E53A120581C0E0740D141200BDD0E0E0
:100BCA00E53B12058120840FC0027A64120039D0F5
:100BDA0002208403308406020B77020CF280001292
:100BEA000468120504755000755100754100853975
:100BFA00307531007532007533001200DA854239DA
:100C0A00853B307531007532007533001200DA8584
:100C1A00423BD2AFC0E07401141200BFD0E0C083DF
:100C2A00C082C0E09008001200B2D0E0D082D08327
:100C3A001204E63001A475F00012054B1206508F1B
:100C4A00488E47C201C0E07401141200BDD0E0C052
:100C5A0083C082C0E09008121200B2D0E0D082D0E5
:100C6A0083C0E07403141200BDD0E0C000A8511282
:100C7A0000C4D000C0E07405141200BDD0E0C0006A
:100C8A00A8501200C4D000C0E07409141200BDD0EC
:100C9A00E0C083C082C0E09008181200B2D0E0D051
:100CAA0082D083C0E0740C141200BDD0E0C083C0AF
:100CBA0082C0E09008151200B2D0E0D082D083C082
:100CCA00E0740E141200BDD0E0C000A8521200C495
:100CDA00D000C0E0740B141200BDD0E0C000A841DF
:100CEA001200C4D000020CF2E541B4001E75520095
:100CFA0020A415C0027A32120039D00220A4093089
:100D0A00A4FD75410175520A020C3DE541B4012A60
:100D1A00853830753100753200753300853D34856C
:100D2A003E35853F368540371201E230000975525B
:100D3A0001755100754102020C3DE541B402278557
:100D4A003930753100753200753300855134753587
:100D5A00007536007537001201E230000675520A36
:100D6A00754103020C3DE541B4032A853A307531D9
:100D7A0000753200753300853D34853E35853F3632
:100D8A008540371201E2300009755100755202752B
:100D9A004104020C3DE541B40427853B307531001E
:100DAA007532007533008551347535007536007516
:100DBA0037001201E2300006755200754105020C37
:100DCA003DE541B40524853C307531007532007526
:100DDA003300853D34853E35853F368540371201DF
:0D0DEA00FE300006754100755200020C3D00
:00000001FF
