:0300000002049661
:1000030079DE78A6D8FED9FA438780759852759B16
:1000130000759AF4759B1E223099FDC299F59922B9
:10002300E493600612001BA380F622202054454D62
:10003300503A20787878204320202020007AC8790D
:0A004300647864D8FED9FADAF622D8
:10004D00C00078B10000D8FCD00022C000C00179FA
:10005D002D78A6D8FED9FADAF6D001D00022D2B387
:10006D0012004DC2B322A2E792B7A2E692B6A2E564
:10007D0092B5A2E492B412006B12004DA2E392B7B6
:10008D00A2E292B6A2E192B5A2E092B412006B2266
:10009D00D2B2020073C2B2020073C2B37433120043
:1000AD00A274331200A274321200A274281200A29C
:1000BD00740C1200A274011200A2C0027A02120086
:1000CD0058D00222E493600612009DA380F62244CC
:1000DD004044800200A2C0E0E8C4540F4430120036
:0C00ED009DE8540F443012009DD0E0222A
:1000F900C0E0C0D0C000C001C002E4F538F539F550
:100109003AF53BF53C7A20E533A2E779047830E605
:1001190033F608D9FA79057838E636D4F608D9F9E4
:10012900DAE5D002D001D000D0D0D0E022C0E0C0C2
:10013900D0C000C001C002E4F538F539F53AF53B05
:10014900F53C7A20E533A2E779047830E633F608FE
:10015900D9FA79057838C0D0E6243320E70224D0CB
:1001690020E30224FDD0D033F608D9EADAD6D0024A
:10017900D001D000D0D0D0E022C0E0C0D0C000C0B3
:1001890001C0027A207905C3783CE613C0D030E774
:100199000224D030E30224FDF618D0D0D9EC79043A
:1001A9007833E613F618D9FADADBD002D001D00099
:1001B900D0D0D0E022C0E0C0D0E5302534F530E51C
:1001C900313535F531E5323536F532E5333537F543
:1001D90033D0D0D0E022C0E0C0D0C3E5309534F5AB
:1001E90030E5319535F531E5329536F532E533951A
:1001F90037F533D0D0D0E022C0E0C0D0C3E5309588
:1002090034E5319535E5329536E53395379200D0A9
:10021900D0D0E022C0E0C0D0C3E5349530E53595B3
:1002290031E5369532E53795339200D0D0D0E022CA
:10023900C0E0C0D0C200C3E53495307014E53595EF
:1002490031700EE53695327008E53795337002D274
:1002590000D0D0D0E02212023920000302021D2270
:1002690012023920000302020122C0E0C0F0C0D00E
:10027900C000C001C002C003E5308534F0A4F8A96C
:10028900F0E5318534F0A429F9E435F0FAE5308553
:1002990035F0A429F9E5F03AFAE433FBE53285347F
:1002A900F0A42AFAE5F03BFBE5318535F0A42AFAFA
:1002B900E5F03BFBE5308536F0A42AFAE5F03BFB97
:1002C900E5338534F0A42BFBE5328535F0A42BFB0F
:1002D900E5318536F0A42BFBE5308537F0A42BFBFF
:1002E9008B338A3289318830D003D002D001D000D3
:1002F900D0D0D0F0D0E022C0E0C0D0C000C001C052
:1003090002C003C0047C20E4F8F9FAFBC3E53033EA
:10031900F530E53133F531E53233F532E53333F58F
:1003290033E833F8E933F9EA33FAEB33FBC3E895F9
:1003390034E99535EA9536EB95374013E89534F865
:10034900E99535F9EA9536FAEB9537FB433001DC47
:10035900BBD004D003D002D001D000D0D0D0E0224D
:10036900D2A2C2A32279007A08E833F892A1D2A3D3
:10037900A2A2E933F9C2A3DAF022C2A078011203DA
:100389006EE5F0C454F0D2E7F812036EE95403FFA6
:10039900785512036EE9FED2A022C0E0E8C4540FDA
:1003A900443012001BE8540F443012001BD0E022E5
:1003B900784AD8FE227530007531007532007533E0
:1003C900007D6475F0001203837537007536008F60
:1003D900358E341201BE1203B9DDE8753464753502
:1003E90000753600753700120300228541308542B9
:1003F9003175320075330075340075351075360066
:1004090075370012027375342C7535017536007510
:1004190037001202737534FF753503753600753769
:100429000012030075343C75350F753600753700B9
:1004390012030075341675350075360075370012CC
:1004490001BE853038E530D4F53D1200F912047942
:10045900120040C000A8391203A3D000C000A83878
:100469001203A3D000740D12001B740A12001B2280
:10047900C0E07409141200DED0E0C000A8391200EF
:10048900E3D000C000A8381200E3D0002275817FB4
:100499001200A7120003C0E07401141200DED0E0BC
:1004A900C083C082C0E090002E1200D1D0E0D0827B
:1004B900D08312036975F0001203831203B9120382
:1004C900BEC0E07401141200DCD0E08F318E30120E
:1004D90000F9C000A8391200E3D000C000A8381202
:0D04E90000E3D0008F428E411203F480C862
:00000001FF
