:0300000002026495
:0100030032CA
:03000B0002016986
:0100130032BA
:01001B0032B2
:0100230032AA
:03002B000201854A
:10002E00C00078B10000D8FCD00022C000C0017919
:10003E002D78A6D8FED9FADAF6D001D00022D2B3A6
:10004E0012002EC2B322A2E792B7A2E692B6A2E5A2
:10005E0092B5A2E492B412004C12002EA2E392B713
:10006E00A2E292B6A2E192B5A2E092B412004C22A4
:10007E00D2B2020054C2B2020054C2B374331200A0
:10008E008374331200837432120083742812008337
:10009E00740C1200837401120083C0027A021200E3
:1000AE0039D00222E493600612007EA380F6224429
:1000BE00404480020083C0E0E8C4540F4430120074
:1000CE007EE8540F443012007ED0E0222020202003
:1000DE00203A20203A2020202020202000414D00D0
:1000EE00504D004D6F6E0054756500576564005499
:1000FE00687500547565005361740053756E002069
:10010E00202020203A20203A202054696D650020BE
:10011E00202020203A20203A2020416C61726D0070
:10012E0020202B48202B4D20415020536574202039
:10013E0000202020202020202020202020202020D1
:10014E002000E58954F04401F589758CEA758AE83A
:10015E0075F4EA75F2E8D2A9D28C22B2913275C842
:10016E000075CDA975CC9A75CBA975CA9AE4F531EF
:10017E00F532D2ADD2CA22C2CFB290C0E0C0D00505
:10018E0031E53170020532E531B4644EE532B4002A
:10019E0049D200E4F531F532E537B409477400D49D
:1001AE00F537E538B4594F7400D4F538E539B459FC
:1001BE004F7400D4F539120251E53AB4125074015D
:1001CE00D4F53AE53CB406737400D4F53C308005A2
:1001DE0024010201E52499D4F538D0D0D0E032C202
:1001EE00C60201952401D4F537E5362499D4F536A7
:1001FE00B535EC020195D2C62401D4F5380201952D
:10020E002401D4F5391202510201950201952401FF
:10021E00D4F53AE53AB412F3E53BB401167400F5A1
:10022E003BE53CB40706753C000201952401F53C04
:10023E000201952401D4F53B0201952400D4F53B2F
:10024E00020195E539B53D0DE53AB53E08E53BB5FC
:10025E003B03D28C222275817F12015012016C75E4
:10026E00E60075E700753605D28CD2AF120088C055
:10027E00E07401141200BFD0E0C083C082C0E090D1
:10028E0000DA1200B2D0E0D082D083D20020A11CBE
:10029E00C0027A32120039D00220A11030A1FD30F6
:1002AE008C05C28C02029BC2CA02045520A120C03A
:1002BE00027A32120039D00220A11430A1FD308C06
:1002CE000BC28CE5392401F53D02029B0205AA30D2
:1002DE0000BBC200C0E07401141200BFD0E0C083A6
:1002EE00C082C0E09000DA1200B2D0E0D082D0839B
:1002FE00C0E0740A141200BFD0E0C000A83812008B
:10030E00C4D000C0E07407141200BFD0E0C000A833
:10031E00391200C4D000C0E07404141200BFD0E043
:10032E00C000A83A1200C4D000C0E0740C14120031
:10033E00BFD0E0E53CB4001CC0E07407141200BD51
:10034E00D0E0C083C082C0E09000F11200B2D0E0D5
:10035E00D082D083B4011CC0E07407141200BDD04B
:10036E00E0C083C082C0E09000F51200B2D0E0D0B1
:10037E0082D083B4021CC0E07407141200BDD0E01A
:10038E00C083C082C0E09000F91200B2D0E0D082EB
:10039E00D083B4031CC0E07407141200BDD0E0C0BB
:1003AE0083C082C0E09000FD1200B2D0E0D082D0B7
:1003BE0083B4041CC0E07407141200BDD0E0C083E7
:1003CE00C082C0E09001011200B2D0E0D082D08392
:1003DE00B4051CC0E07407141200BDD0E0C083C089
:1003EE0082C0E09001051200B2D0E0D082D083B47A
:1003FE00061CC0E07407141200BDD0E0C083C0829A
:10040E00C0E09001091200B2D0E0D082D083C0E0EB
:10041E00740C141200BFD0E0E53BB40015C083C0CD
:10042E0082C0E09000EB1200B2D0E0D082D0830206
:10043E00029BC083C082C0E09000EE1200B2D0E0FA
:10044E00D082D08302029BC0E07401141200BFD090
:10045E00E0C083C082C0E090010D1200B2D0E0D0A7
:10046E0082D083C0E07401141200BDD0E0C083C0FE
:10047E0082C0E090012E1200B2D0E0D082D083C0B4
:10048E00E07407141200BFD0E0C000A8391200C4F7
:10049E00D000C0E07404141200BFD0E0C000A83A2F
:1004AE001200C4D000C0E07409141200BFD0E0E501
:1004BE003BB40015C083C082C0E09000EB1200B2C6
:1004CE00D0E0D082D0830204E9C083C082C0E09025
:1004DE0000EE1200B2D0E0D082D08320A123C00261
:1004EE007A32120039D00220A11730A1FDE53AB4BC
:1004FE0012077401F53A0204552401D4F53A0204A8
:10050E005520A172C0027A32120039D00220A166A3
:10051E0030A1FDE539B459567400F5390204552061
:10052E00A1B9C0027A32120039D00220A1AD30A199
:10053E00FDC0E07401141200BFD0E0C083C082C0C1
:10054E00E09000DA1200B2D0E0D082D083C0E07426
:10055E0001141200BDD0E0C083C082C0E090013F04
:10056E001200B2D0E0D082D083D2CA0202E02401BF
:10057E00D4F53902045520A1A6C0027A32120039F0
:10058E00D00220A19A30A1FDE53BB401077400F51D
:10059E003B0204552401D4F53B020455C0E074011E
:1005AE00141200BFD0E0C083C082C0E090011D12C3
:1005BE0000B2D0E0D082D083C0E07401141200BD2E
:1005CE00D0E0C083C082C0E090012E1200B2D0E015
:1005DE00D082D083C0E07407141200BFD0E0C000F8
:1005EE00A83D1200C4D000C0E07404141200BFD0A5
:1005FE00E0C000A83E1200C4D000C0E0740914127E
:10060E0000BFD0E0E53FB40015C083C082C0E090CB
:10061E0000EB1200B2D0E0D082D08302063EC0833F
:10062E00C082C0E09000EE1200B2D0E0D082D08343
:10063E0020A123C0027A32120039D00220A1173035
:10064E00A1FDE53EB412077401F53E0205AA240190
:10065E00D4F53E0205AA20A123C0027A3212003937
:10066E00D00220A11730A1FDE53DB459077400F565
:10067E003D0205AA2401D4F53D0205AA20A123C0FE
:10068E00027A32120039D00220A11730A1FDE53FC7
:10069E00B401077400F53F0205AA2401D4F53F0208
:1006AE0005AA20A14AC0027A32120039D00220A136
:1006BE003E30A1FDC0E07401141200BFD0E0C08333
:1006CE00C082C0E09000DA1200B2D0E0D082D083B7
:1006DE00C0E07401141200BDD0E0C083C082C0E03F
:1006EE0090013F1200B2D0E0D082D0830202E0022D
:0206FE00063EB6
:00000001FF
