:0300000002018F6B
:0100030032CA
:03000B00020115DA
:0100130032BA
:01001B0032B2
:0100230032AA
:03002B000201319E
:10002E00C00078B10000D8FCD00022C000C0017919
:10003E002D78A6D8FED9FADAF6D001D00022D2B3A6
:10004E0012002EC2B322A2E792B7A2E692B6A2E5A2
:10005E0092B5A2E492B412004C12002EA2E392B713
:10006E00A2E292B6A2E192B5A2E092B412004C22A4
:10007E00D2B2020054C2B2020054C2B374331200A0
:10008E008374331200837432120083742812008337
:10009E00740C1200837401120083C0027A021200E3
:1000AE0039D00222E493600612007EA380F6224429
:1000BE00404480020083C0E0E8C4540F4430120074
:1000CE007EE8540F443012007ED0E0222020202003
:1000DE00203A20203A2020202020202000202020FE
:1000EE002020202020202020202020202000E589F4
:1000FE0054F04401F589758CEA758AE875F4EA7551
:10010E00F2E8D2A9D28C22B2913275C80075CDA96F
:10011E0075CC9A75CBA975CA9AE4F531F532D2AD84
:10012E00D2CA22C2CFB290C0E0C0D00531E5317044
:10013E00020532E531B4642DE532B40028D200E474
:10014E00F531F532E536B409217400D4F536E537CC
:10015E00B459247400D4F53730800524010201709F
:10016E002499D4F537D0D0D0E0322401D4F536B569
:10017E0035C1D2A2020141C2A22401D4F537020137
:10018E004175817F1200FC12011875E60075E700BB
:10019E00753505D2AF120088C0E07401141200BF8D
:1001AE00D0E0C083C082C0E09000DA1200B2D0E08E
:0901BE00D082D083D2000201C4FA
:00000001FF
