:0300000002025A9F
:0100030032CA
:03000B0002016986
:0100130032BA
:01001B0032B2
:0100230032AA
:03002B000201854A
:10002E00C00078B10000D8FCD00022C000C0017919
:10003E002D78A6D8FED9FADAF6D001D00022D2B3A6
:10004E0012002EC2B322A2E792B7A2E692B6A2E5A2
:10005E0092B5A2E492B412004C12002EA2E392B713
:10006E00A2E292B6A2E192B5A2E092B412004C22A4
:10007E00D2B2020054C2B2020054C2B374331200A0
:10008E008374331200837432120083742812008337
:10009E00740C1200837401120083C0027A021200E3
:1000AE0039D00222E493600612007EA380F6224429
:1000BE00404480020083C0E0E8C4540F4430120074
:1000CE007EE8540F443012007ED0E0222020202003
:1000DE00203A20203A2020202020202000414D00D0
:1000EE00504D004D6F6E0054756500576564005499
:1000FE00687500547565005361740053756E002069
:10010E00202020203A20203A202054696D650020BE
:10011E00202020203A20203A2020416C61726D0070
:10012E0020202B48202B4D20415020536574202039
:10013E0000202020202020202020202020202020D1
:10014E002000E58954F04401F589758CEA758AE83A
:10015E0075F4EA75F2E8D2A9D28C22B2913275C842
:10016E000075CDA975CC9A75CBA975CA9AE4F531EF
:10017E00F532D2ADD2CA22C2CFB290C0E0C0D00505
:10018E0031E53170020532E531B4644EE532B4002A
:10019E0049D200E4F531F532E536B409427400D4A3
:1001AE00F536E537B459457400D4F537E538B4590A
:1001BE00457400D4F538120247E539B4124674017D
:1001CE00D4F539E53BB406697400D4F53B308005AF
:1001DE0024010201E52499D4F537D0D0D0E03224A1
:1001EE0001D4F536B535A0D2A2020195C2A22401E2
:1001FE00D4F5370201952401D4F5381202470201D5
:10020E00950201952401D4F539E539B412F3E53A96
:10021E00B401167400F53AE53BB40706753B0002CF
:10022E0001952401F53B0201952401D4F53A020112
:10023E00952400D4F53A020195E538B53C0DE53923
:10024E00B53D08E53AB53A03D28C222275817F126C
:10025E00015012016C75E60075E700753505D28CFC
:10026E00D2AF120088C0E07401141200BFD0E0C0FB
:10027E0083C082C0E09000DA1200B2D0E0D082D00B
:10028E0083D20020A11CC0027A32120039D0022083
:10029E00A11030A1FD308C05C28C020291C2CA029F
:1002AE00044B20A120C0027A32120039D00220A1C4
:1002BE001430A1FD308C0BC28CE5382401F53C02C4
:1002CE0002910205A03000BBC200C0E074011412FE
:1002DE0000BFD0E0C083C082C0E09000DA1200B24E
:1002EE00D0E0D082D083C0E0740A141200BFD0E0F8
:1002FE00C000A8371200C4D000C0E074071412006A
:10030E00BFD0E0C000A8381200C4D000C0E0740412
:10031E00141200BFD0E0C000A8391200C4D000C033
:10032E00E0740C141200BFD0E0E53BB4001CC0E03A
:10033E007407141200BDD0E0C083C082C0E09000EC
:10034E00F11200B2D0E0D082D083B4011CC0E074B0
:10035E0007141200BDD0E0C083C082C0E09000F54B
:10036E001200B2D0E0D082D083B4021CC0E0740779
:10037E00141200BDD0E0C083C082C0E09000F9121C
:10038E0000B2D0E0D082D083B4031CC0E074071456
:10039E001200BDD0E0C083C082C0E09000FD12000C
:1003AE00B2D0E0D082D083B4041CC0E07407141223
:1003BE0000BDD0E0C083C082C0E09001011200B247
:1003CE00D0E0D082D083B4051CC0E07407141200B4
:1003DE00BDD0E0C083C082C0E09001051200B2D053
:1003EE00E0D082D083B4061CC0E07407141200BDA6
:1003FE00D0E0C083C082C0E09001091200B2D0E00C
:10040E00D082D083C0E0740C141200BFD0E0E53A65
:10041E00B40015C083C082C0E09000EB1200B2D0D1
:10042E00E0D082D083020291C083C082C0E09000EF
:10043E00EE1200B2D0E0D082D083020291C0E074FE
:10044E0001141200BFD0E0C083C082C0E090010D45
:10045E001200B2D0E0D082D083C0E074011412003A
:10046E00BDD0E0C083C082C0E090012E1200B2D099
:10047E00E0D082D083C0E07407141200BFD0E0C079
:10048E0000A8381200C4D000C0E07404141200BFDB
:10049E00D0E0C000A8391200C4D000C0E074091426
:1004AE001200BFD0E0E53AB40015C083C082C0E0B0
:1004BE009000EB1200B2D0E0D082D0830204DFC0F5
:1004CE0083C082C0E09000EE1200B2D0E0D082D0A5
:1004DE008320A123C0027A32120039D00220A11744
:1004EE0030A1FDE539B412077401F53902044B242D
:1004FE0001D4F53902044B20A172C0027A321200E7
:10050E0039D00220A16630A1FDE538B459567400E9
:10051E00F53802044B20A1B9C0027A32120039D04C
:10052E000220A1AD30A1FDC0E07401141200BFD0B5
:10053E00E0C083C082C0E09000DA1200B2D0E0D0FA
:10054E0082D083C0E07401141200BDD0E0C083C01D
:10055E0082C0E090013F1200B2D0E0D082D083D2B0
:10056E00CA0202D62401D4F53802044B20A1A6C03B
:10057E00027A32120039D00220A19A30A1FDE53A5A
:10058E00B401077400F53A02044B2401D4F53A0283
:10059E00044BC0E07401141200BFD0E0C083C082CF
:1005AE00C0E090011D1200B2D0E0D082D083C0E036
:1005BE007401141200BDD0E0C083C082C0E090016F
:1005CE002E1200B2D0E0D082D083C0E07407141295
:1005DE0000BFD0E0C000A83C1200C4D000C0E07440
:1005EE0004141200BFD0E0C000A83D1200C4D00019
:1005FE00C0E07409141200BFD0E0E53EB40015C08F
:10060E0083C082C0E09000EB1200B2D0E0D082D066
:10061E0083020634C083C082C0E09000EE1200B2A6
:10062E00D0E0D082D08320A123C0027A32120039CA
:10063E00D00220A11730A1FDE53DB412077401F5DB
:10064E003D0205A02401D4F53D0205A020A123C042
:10065E00027A32120039D00220A11730A1FDE53CFA
:10066E00B459077400F53C0205A02401D4F53C02F0
:10067E0005A020A123C0027A32120039D00220A197
:10068E001730A1FDE53EB401077400F53E0205A04A
:10069E002401D4F53E0205A020A14AC0027A3212EE
:1006AE000039D00220A13E30A1FDC0E07401141229
:1006BE0000BFD0E0C083C082C0E09000DA1200B26A
:1006CE00D0E0D082D083C0E07401141200BDD0E01F
:1006DE00C083C082C0E090013F1200B2D0E0D08251
:0806EE00D0830202D60206349B
:00000001FF
