:0300000002046790
:1000030079DE78A6D8FED9FA438780759852759B16
:1000130000759AF4759B1E223099FDC299F59922B9
:10002300E493600612001BA380F62248656C6C6F94
:100033002C20576F726C64210D0A00202054454D0B
:10004300503A20787878204320202020007AC879FD
:0A005300647864D8FED9FADAF622C8
:10005D00C00078B10000D8FCD00022C000C00179EA
:10006D002D78A6D8FED9FADAF6D001D00022D2B377
:10007D0012005DC2B322A2E792B7A2E692B6A2E544
:10008D0092B5A2E492B412007B12005DA2E392B786
:10009D00A2E292B6A2E192B5A2E092B412007B2246
:1000AD00D2B2020083C2B2020083C2B37433120013
:1000BD00B274331200B274321200B274281200B24C
:1000CD00740C1200B274011200B2C0027A02120056
:1000DD0068D00222E49360061200ADA380F622449C
:1000ED004044800200B2C0E0E8C4540F4430120016
:0C00FD00ADE8540F44301200ADD0E022FA
:10010900C0E0C0D0C000C001C002E4F538F539F53F
:100119003AF53BF53C7A20E533A2E779047830E6F5
:1001290033F608D9FA79057838E636D4F608D9F9D4
:10013900DAE5D002D001D000D0D0D0E022C0E0C0B2
:10014900D0C000C001C002E4F538F539F53AF53BF5
:10015900F53C7A20E533A2E779047830E633F608EE
:10016900D9FA79057838C0D0E6243320E70224D0BB
:1001790020E30224FDD0D033F608D9EADAD6D0023A
:10018900D001D000D0D0D0E022C0E0C0D0C000C0A3
:1001990001C0027A207905C3783CE613C0D030E764
:1001A9000224D030E30224FDF618D0D0D9EC79042A
:1001B9007833E613F618D9FADADBD002D001D00089
:1001C900D0D0D0E022C0E0C0D0E5302534F530E50C
:1001D900313535F531E5323536F532E5333537F533
:1001E90033D0D0D0E022C0E0C0D0C3E5309534F59B
:1001F90030E5319535F531E5329536F532E533950A
:1002090037F533D0D0D0E022C0E0C0D0C3E5309577
:1002190034E5319535E5329536E53395379200D099
:10022900D0D0E022C0E0C0D0C3E5349530E53595A3
:1002390031E5369532E53795339200D0D0D0E022BA
:10024900C0E0C0D0C200C3E53495307014E53595DF
:1002590031700EE53695327008E53795337002D264
:1002690000D0D0D0E02212024920000302022D2240
:1002790012024920000302021122C0E0C0F0C0D0DE
:10028900C000C001C002C003E5308534F0A4F8A95C
:10029900F0E5318534F0A429F9E435F0FAE5308543
:1002A90035F0A429F9E5F03AFAE433FBE53285346F
:1002B900F0A42AFAE5F03BFBE5318535F0A42AFAEA
:1002C900E5F03BFBE5308536F0A42AFAE5F03BFB87
:1002D900E5338534F0A42BFBE5328535F0A42BFBFF
:1002E900E5318536F0A42BFBE5308537F0A42BFBEF
:1002F9008B338A3289318830D003D002D001D000C3
:10030900D0D0D0F0D0E022C0E0C0D0C000C001C041
:1003190002C003C0047C20E4F8F9FAFBC3E53033DA
:10032900F530E53133F531E53233F532E53333F57F
:1003390033E833F8E933F9EA33FAEB33FBC3E895E9
:1003490034E99535EA9536EB95374013E89534F855
:10035900E99535F9EA9536FAEB9537FB433001DC37
:10036900BBD004D003D002D001D000D0D0D0E0223D
:10037900D2A2C2A32279007A08E833F892A1D2A3C3
:10038900A2A2E933F9C2A3DAF022C2A078011203CA
:100399007EE5F0C454F0D2E7F812037EE95403FF76
:1003A900785512037EE9FED2A022C0E0E8C4540FBA
:1003B900443012001BE8540F443012001BD0E022D5
:1003C900853D45C0E07409141200EED0E0C000A8D4
:1003D900451200F3D0002285413085423175320043
:1003E900753300753451753500753600753700124F
:1003F90002837534E87535037536007537001203C5
:1004090010120310753416753500753600753700EE
:100419001201CE853038E530D4F53D1201091204B8
:100429004A120050C000A8381203B3D000C000A877
:10043900391203B3D000740D12001B740A12001B89
:1004490022C0E07409141200EED0E0C000A83912ED
:1004590000F3D000C000A8381200F3D00022758143
:100469007F1200B7120003C0E07401141200EED02D
:10047900E0C083C082C0E090003E1200E1D0E0D02D
:1004890082D08312037975F0001203938E428F4153
:050499001203E080F1F8
:00000001FF
