:0300000002054BAB
:03002B000204E0EC
:10002E0079DE78A6D8FED9FA438780759852759BEB
:10003E0000759AF4759B1E223099FDC299F599228E
:10004E00E4936006120046A380F622202054454D0C
:10005E00503A2078787820432020202000543A000F
:10006E00503A00533A007AC879647864D8FED9FAC7
:03007E00DAF6228D
:10008100C00078B10000D8FCD00022C000C00179C6
:100091002D78A6D8FED9FADAF6D001D00022D2B353
:1000A100120081C2B322A2E792B7A2E692B6A2E5FC
:1000B10092B5A2E492B412009F120081A2E392B71A
:1000C100A2E292B6A2E192B5A2E092B412009F22FE
:1000D100D2B20200A7C2B20200A7C2B374331200A7
:1000E100D674331200D674321200D674281200D698
:1000F100740C1200D674011200D6C0027A021200EA
:100101008CD00222E49360061200D1A380F622442F
:100111004044800200D6C0E0E8C4540F44301200CD
:0C012100D1E8540F44301200D1D0E0228D
:10012D00C0E0C0D0C000C001C002E4F538F539F51B
:10013D003AF53BF53C7A20E533A2E779047830E6D1
:10014D0033F608D9FA79057838E636D4F608D9F9B0
:10015D00DAE5D002D001D000D0D0D0E022C0E0C08E
:10016D00D0C000C001C002E4F538F539F53AF53BD1
:10017D00F53C7A20E533A2E779047830E633F608CA
:10018D00D9FA79057838C0D0E6243320E70224D097
:10019D0020E30224FDD0D033F608D9EADAD6D00216
:1001AD00D001D000D0D0D0E022C0E0C0D0C000C07F
:1001BD0001C0027A207905C3783CE613C0D030E740
:1001CD000224D030E30224FDF618D0D0D9EC790406
:1001DD007833E613F618D9FADADBD002D001D00065
:1001ED00D0D0D0E022C0E0C0D0E5302534F530E5E8
:1001FD00313535F531E5323536F532E5333537F50F
:10020D0033D0D0D0E022C0E0C0D0C3E5309534F576
:10021D0030E5319535F531E5329536F532E53395E5
:10022D0037F533D0D0D0E022C0E0C0D0C3E5309553
:10023D0034E5319535E5329536E53395379200D075
:10024D00D0D0E022C0E0C0D0C3E5349530E535957F
:10025D0031E5369532E53795339200D0D0D0E02296
:10026D00C0E0C0D0C200C3E53495307014E53595BB
:10027D0031700EE53695327008E53795337002D240
:10028D0000D0D0D0E02212026D20000302025122D4
:10029D0012026D20000302023522C0E0C0F0C0D072
:1002AD00C000C001C002C003E5308534F0A4F8A938
:1002BD00F0E5318534F0A429F9E435F0FAE530851F
:1002CD0035F0A429F9E5F03AFAE433FBE53285344B
:1002DD00F0A42AFAE5F03BFBE5318535F0A42AFAC6
:1002ED00E5F03BFBE5308536F0A42AFAE5F03BFB63
:1002FD00E5338534F0A42BFBE5328535F0A42BFBDB
:10030D00E5318536F0A42BFBE5308537F0A42BFBCA
:10031D008B338A3289318830D003D002D001D0009E
:10032D00D0D0D0F0D0E022C0E0C0D0C000C001C01D
:10033D0002C003C0047C20E4F8F9FAFBC3E53033B6
:10034D00F530E53133F531E53233F532E53333F55B
:10035D0033E833F8E933F9EA33FAEB33FBC3E895C5
:10036D0034E99535EA9536EB95374013E89534F831
:10037D00E99535F9EA9536FAEB9537FB433001DC13
:10038D00BBD004D003D002D001D000D0D0D0E02219
:10039D00D2A2C2A32279007A08E833F892A1D2A39F
:1003AD00A2A2E933F9C2A3DAF022C2A078011203A6
:1003BD00A2E5F0C454F0D2E7F81203A2E95403FF0A
:1003CD0078551203A2E9FED2A022C0E0E8C4540F72
:1003DD004430120046E8540F4430120046D0E0225B
:1003ED00784AD8FE227530007531007532007533AC
:1003FD00007D6475F0001203B77537007536008FF8
:10040D00358E341201F21203EDDDE8753464753565
:10041D000075360075370012033422854130854250
:10042D003175320075330075340075351075360031
:10043D007537001202A775342C75350175360075A8
:10044D0037001202A77534FF753503753600753701
:10045D000012033475343C75350F75360075370051
:10046D001203347534167535007536007537001264
:10047D0001F2853038E530D4F53D12012D1204AA74
:10048D00C000A8391203D7D000C000A8381203D776
:10049D00D000740D120046740A12004622C0E0749A
:1004AD000914120112D0E0C000A839120117D000B2
:1004BD00C000A838120117D0002275C80075CDA94B
:1004CD0075CC9A75CBA975CA9AE4F545F546D2ADAA
:1004DD00D2CA22C2CFB290C0E0C0D00545E545706A
:1004ED00020546E545B46449E546B40044D201E44D
:1004FD00F545F546E547B409197400D4F547E548C7
:10050D00B4991C7400D4F5480204F03080282401FD
:10051D0080262401D4F547B549C9D2910204F024AF
:10052D0001D4F548E549B400030204F0C291020478
:10053D00F0D0D0D0E0322499D4F54702064575812C
:10054D007F1204C71200DB12002E7547007548009C
:10055D00754A00754B64754C1E754D7D754E147541
:10056D004F3CD2AFC0E0740114120112D0E0C08331
:10057D00C082C0E0900059120105D0E0D082D08336
:10058D0012039D3001B575F0001203B71204288FC8
:10059D00428E41C201C0E0740114120110D0E0C0BE
:1005AD0083C082C0E090006B120105D0E0D082D0F4
:1005BD0083C0E0740314120110D0E0C000A84812EB
:1005CD000117D000C0E0740514120110D0E0C00076
:1005DD00A847120117D000C0E0740914120110D001
:1005ED00E0C083C082C0E0900071120105D0E0D060
:1005FD0082D083C0E0740B14120110D0E0C000A8AB
:10060D004A120117D000C0E0740C14120110D0E092
:10061D00C083C082C0E090006E120105D0E0D08290
:10062D00D083C0E0740E14120110D0E0C000A849B0
:10063D00120117D000020645E54AB4001E754900A7
:10064D0020A415C0027A3212008CD00220A40930E9
:10065D00A4FD754A0175490A020590E54AB40113D6
:10066D00E54BC3953D5009754902754800754A0221
:10067D00020590E54AB40210E54CC3954850067545
:10068D00490A754A03020590E54AB40313E54DC3C3
:10069D00953D5009754800754902754A040205904B
:1006AD00E54AB40410E54EC39548500675490075EA
:1006BD004A05020590E54AB4050DE53DC3954F5039
:0A06CD0006754A0075490002059009
:00000001FF
