:0300000002053FB7
:03002B000204DAF2
:10002E0079DE78A6D8FED9FA438780759852759BEB
:10003E0000759AF4759B1E223099FDC299F599228E
:10004E00E4936006120046A380F622202054454D0C
:10005E00503A2078787820432020202000543A000F
:0D006E007AC879647864D8FED9FADAF622EF
:10007B00C00078B10000D8FCD00022C000C00179CC
:10008B002D78A6D8FED9FADAF6D001D00022D2B359
:10009B0012007BC2B322A2E792B7A2E692B6A2E508
:1000AB0092B5A2E492B412009912007BA2E392B72C
:1000BB00A2E292B6A2E192B5A2E092B4120099220A
:1000CB00D2B20200A1C2B20200A1C2B374331200B9
:1000DB00D074331200D074321200D074281200D0B6
:1000EB00740C1200D074011200D0C0027A021200FC
:1000FB0086D00222E49360061200CBA380F6224442
:10010B004044800200D0C0E0E8C4540F44301200D9
:0C011B00CBE8540F44301200CBD0E0229F
:10012700C0E0C0D0C000C001C002E4F538F539F521
:100137003AF53BF53C7A20E533A2E779047830E6D7
:1001470033F608D9FA79057838E636D4F608D9F9B6
:10015700DAE5D002D001D000D0D0D0E022C0E0C094
:10016700D0C000C001C002E4F538F539F53AF53BD7
:10017700F53C7A20E533A2E779047830E633F608D0
:10018700D9FA79057838C0D0E6243320E70224D09D
:1001970020E30224FDD0D033F608D9EADAD6D0021C
:1001A700D001D000D0D0D0E022C0E0C0D0C000C085
:1001B70001C0027A207905C3783CE613C0D030E746
:1001C7000224D030E30224FDF618D0D0D9EC79040C
:1001D7007833E613F618D9FADADBD002D001D0006B
:1001E700D0D0D0E022C0E0C0D0E5302534F530E5EE
:1001F700313535F531E5323536F532E5333537F515
:1002070033D0D0D0E022C0E0C0D0C3E5309534F57C
:1002170030E5319535F531E5329536F532E53395EB
:1002270037F533D0D0D0E022C0E0C0D0C3E5309559
:1002370034E5319535E5329536E53395379200D07B
:10024700D0D0E022C0E0C0D0C3E5349530E5359585
:1002570031E5369532E53795339200D0D0D0E0229C
:10026700C0E0C0D0C200C3E53495307014E53595C1
:1002770031700EE53695327008E53795337002D246
:1002870000D0D0D0E02212026720000302024B22E6
:1002970012026720000302022F22C0E0C0F0C0D084
:1002A700C000C001C002C003E5308534F0A4F8A93E
:1002B700F0E5318534F0A429F9E435F0FAE5308525
:1002C70035F0A429F9E5F03AFAE433FBE532853451
:1002D700F0A42AFAE5F03BFBE5318535F0A42AFACC
:1002E700E5F03BFBE5308536F0A42AFAE5F03BFB69
:1002F700E5338534F0A42BFBE5328535F0A42BFBE1
:10030700E5318536F0A42BFBE5308537F0A42BFBD0
:100317008B338A3289318830D003D002D001D000A4
:10032700D0D0D0F0D0E022C0E0C0D0C000C001C023
:1003370002C003C0047C20E4F8F9FAFBC3E53033BC
:10034700F530E53133F531E53233F532E53333F561
:1003570033E833F8E933F9EA33FAEB33FBC3E895CB
:1003670034E99535EA9536EB95374013E89534F837
:10037700E99535F9EA9536FAEB9537FB433001DC19
:10038700BBD004D003D002D001D000D0D0D0E0221F
:10039700D2A2C2A32279007A08E833F892A1D2A3A5
:1003A700A2A2E933F9C2A3DAF022C2A078011203AC
:1003B7009CE5F0C454F0D2E7F812039CE95403FF1C
:1003C700785512039CE9FED2A022C0E0E8C4540F7E
:1003D7004430120046E8540F4430120046D0E02261
:1003E700784AD8FE227530007531007532007533B2
:1003F700007D6475F0001203B17537007536008F04
:10040700358E341201EC1203E7DDE8753464753577
:100417000075360075370012032E2285413085425C
:100427003175320075330075340075351075360037
:100437007537001202A175342C75350175360075B4
:1004470037001202A17534FF75350375360075370D
:100457000012032E75343C75350F7536007537005D
:1004670012032E7534167535007536007537001270
:1004770001EC853038E530D4F53D1201271204A48C
:10048700C000A8391203D1D000C000A8381203D188
:10049700D000740D120046740A12004622C0E074A0
:1004A700091412010CD0E0C000A839120111D000C4
:1004B700C000A838120111D0002275C80075CDA957
:1004C70075CC9A75CBA975CA9AE4F545F546D2ADB0
:1004D700D2CA22C2CFB290C0E0C0D00545E5457070
:1004E700020546E545B46446E546B40041D201E459
:1004F700F545F546E547B409167400D4F547E548D0
:10050700B459197400D4F548308028240180262472
:1005170001D4F547B549CCD2910204EA2401D4F5B8
:1005270048E549B400030204EAC2910204EAD0D0C4
:10053700D0E0322499D4F54775817F1204C11200A7
:10054700D512002E754700754800754A00754B3265
:10055700754C1E754D4B754E14754F1ED2AFC0E0CE
:1005670074011412010CD0E0C083C082C0E0900077
:10057700591200FFD0E0D082D08312039730017D5B
:1005870075F0001203B11203EC1204228F428E4160
:10059700C201C0E074011412010AD0E0C083C08216
:1005A700C0E090006B1200FFD0E0D082D083C0E0A3
:1005B70074031412010AD0E0C000A848120111D038
:1005C70000C0E074051412010AD0E0C000A8471269
:1005D7000111D000C0E074091412010AD0E0C00074
:1005E700A84A120111D000C0E0740C1412010AD0FD
:1005F700E0C000A849120111D000020604E54AB480
:10060700001E75490020A415C0027A32120086D058
:100617000220A40930A4FD754A0175490A02058420
:10062700E54AB4011E75490020A415C0027A3212AA
:100637000086D00220A409754902754800754A0250
:10064700020584E54AB40210E54CC3954850067587
:10065700490A754A03020584E54AB40313E54DC305
:10066700953D5009754800754902754A040205848D
:10067700E54AB40410E54EC3954850067549007520
:100687004A05020584E54AB4050AE54FC3953D408E
:0706970003754A000205840F
:00000001FF
