:03000000020530C6
:03002B000204C10B
:10002E0079DE78A6D8FED9FA438780759852759BEB
:10003E0000759AF4759B1E223099FDC299F599228E
:10004E00E4936006120046A380F622202054454D0C
:10005E00503A2078787820432020202000543A000F
:10006E00503A00533A007AC879647864D8FED9FAC7
:03007E00DAF6228D
:10008100C00078B10000D8FCD00022C000C00179C6
:100091002D78A6D8FED9FADAF6D001D00022D2B353
:1000A100120081C2B322A2E792B7A2E692B6A2E5FC
:1000B10092B5A2E492B412009F120081A2E392B71A
:1000C100A2E292B6A2E192B5A2E092B412009F22FE
:1000D100D2B20200A7C2B20200A7C2B374331200A7
:1000E100D674331200D674321200D674281200D698
:1000F100740C1200D674011200D6C0027A021200EA
:100101008CD00222E49360061200D1A380F622442F
:100111004044800200D6C0E0E8C4540F44301200CD
:0C012100D1E8540F44301200D1D0E0228D
:10012D00C0E0C0D0C000C001C002E4F538F539F51B
:10013D003AF53BF53C7A20E533A2E779047830E6D1
:10014D0033F608D9FA79057838E636D4F608D9F9B0
:10015D00DAE5D002D001D000D0D0D0E022C0E0C08E
:10016D00D0C000C001C002E4F538F539F53AF53BD1
:10017D00F53C7A20E533A2E779047830E633F608CA
:10018D00D9FA79057838C0D0E6243320E70224D097
:10019D0020E30224FDD0D033F608D9EADAD6D00216
:1001AD00D001D000D0D0D0E022C0E0C0D0C000C07F
:1001BD0001C0027A207905C3783CE613C0D030E740
:1001CD000224D030E30224FDF618D0D0D9EC790406
:1001DD007833E613F618D9FADADBD002D001D00065
:1001ED00D0D0D0E022C0E0C0D0E5302534F530E5E8
:1001FD00313535F531E5323536F532E5333537F50F
:10020D0033D0D0D0E022C0E0C0D0C3E5309534F576
:10021D0030E5319535F531E5329536F532E53395E5
:10022D0037F533D0D0D0E022C0E0C0D0C3E5309553
:10023D0034E5319535E5329536E53395379200D075
:10024D00D0D0E022C0E0C0D0C3E5349530E535957F
:10025D0031E5369532E53795339200D0D0D0E02296
:10026D00C0E0C0D0C200C3E53495307014E53595BB
:10027D0031700EE53695327008E53795337002D240
:10028D0000D0D0D0E02212026D20000302025122D4
:10029D0012026D20000302023522C0E0C0F0C0D072
:1002AD00C000C001C002C003E5308534F0A4F8A938
:1002BD00F0E5318534F0A429F9E435F0FAE530851F
:1002CD0035F0A429F9E5F03AFAE433FBE53285344B
:1002DD00F0A42AFAE5F03BFBE5318535F0A42AFAC6
:1002ED00E5F03BFBE5308536F0A42AFAE5F03BFB63
:1002FD00E5338534F0A42BFBE5328535F0A42BFBDB
:10030D00E5318536F0A42BFBE5308537F0A42BFBCA
:10031D008B338A3289318830D003D002D001D0009E
:10032D00D0D0D0F0D0E022C0E0C0D0C000C001C01D
:10033D0002C003C0047C20E4F8F9FAFBC3E53033B6
:10034D00F530E53133F531E53233F532E53333F55B
:10035D0033E833F8E933F9EA33FAEB33FBC3E895C5
:10036D0034E99535EA9536EB95374013E89534F831
:10037D00E99535F9EA9536FAEB9537FB433001DC13
:10038D00BBD004D003D002D001D000D0D0D0E02219
:10039D00D2A2C2A32279007A08E833F892A1D2A39F
:1003AD00A2A2E933F9C2A3DAF022C2A078011203A6
:1003BD00A2E5F0C454F0D2E7F81203A2E95403FF0A
:1003CD0078551203A2E9FED2A022C0E0E8C4540F72
:1003DD004430120046E8540F4430120046D0E0225B
:1003ED00784AD8FE227530007531007532007533AC
:1003FD00007D6475F0001203B77537007536008FF8
:10040D00358E341201F21203EDDDE8753464753565
:10041D000075360075370012033422854130854250
:10042D003175320075330075340075351075360031
:10043D007537001202A77534F375353375360075AF
:10044D00370012033475341675350075360075375F
:10045D00001201F2853038E530F53D12012D120400
:10046D008BC000A8391203D7D000C000A8381203E2
:10047D00D7D000740D120046740A12004622C0E057
:10048D00740914120112D0E0C000A839120117D05E
:10049D0000C000A838120117D0002275C80075CD14
:1004AD00A975CC9A75CBA975CA9AE4F545F546D2CE
:1004BD00ADD2CA22C2CFB290C0E0C0D00545E5454D
:1004CD0070020546E545B4644DE546B40048D201D9
:1004DD00E4F545F546E547B4091B7400D4F547D25C
:1004ED0002E548B4991C7400D4F5480204D130805B
:1004FD002A240180282401D4F547B549C7D2910299
:10050D0004D12401D4F548E549D291B40003020485
:10051D00D1C2910204D1D0D0D0E0322499D4F54784
:10052D0002062A75817F1204A81200DB12002E75B7
:10053D004700754800754A00754B64754C60754DE4
:10054D00C8754E45754F3CD2AFC0E0740114120111
:10055D0012D0E0C083C082C0E0900059120105D0D6
:10056D00E0D082D08312039D3001B575F0001203E7
:10057D00B71204288F428E41C201C0E074011412DB
:10058D000110D0E0C083C082C0E090006B12010565
:10059D00D0E0D082D083C0E0740314120110D0E0FB
:1005AD00C000A848120117D000C0E0740514120154
:1005BD0010D0E0C000A847120117D000C0E07409A8
:1005CD0014120110D0E0C083C082C0E090007112FF
:1005DD000105D0E0D082D083C0E0740C141201105C
:1005ED00D0E0C083C082C0E090006E120105D0E063
:1005FD00D082D083C0E0740E14120110D0E0C00080
:10060D00A849120117D000C0E0740B14120110D0CC
:10061D00E0C000A84A120117D00002062AE54AB42C
:10062D00001E75490020A415C0027A3212008CD02C
:10063D000220A40930A4FD754A0175490A02057509
:10064D00E54AB4012A854B3075310075320075339A
:10065D0000853D34853E35853F3685403712023560
:10066D00300009754901754800754A02020575E5A6
:10067D004AB40227854C3075310075320075330050
:10068D0085483475350075360075370012023530E2
:10069D00000675490A754A03020575E54AB4032A31
:1006AD00854D30753100753200753300853D3485CB
:1006BD003E35853F36854037120235300009754885
:1006CD0000754902754A04020575E54AB40427858B
:1006DD004E307531007532007533008548347535EF
:1006ED000075360075370012023530000675490069
:1006FD00754A05020575E54AB40524854F307531F7
:10070D0000753200753300853D34853E35853F36A5
:10071D00854037120251300006754A0075490002B6
:02072D00057550
:00000001FF
