:0300000002053CBA
:03002B000204D7F5
:10002E0079DE78A6D8FED9FA438780759852759BEB
:10003E0000759AF4759B1E223099FDC299F599228E
:10004E00E4936006120046A380F622202054454D0C
:10005E00503A20787878204320202020007AC879E2
:0A006E00647864D8FED9FADAF622AD
:10007800C00078B10000D8FCD00022C000C00179CF
:100088002D78A6D8FED9FADAF6D001D00022D2B35C
:10009800120078C2B322A2E792B7A2E692B6A2E50E
:1000A80092B5A2E492B4120096120078A2E392B735
:1000B800A2E292B6A2E192B5A2E092B41200962210
:1000C800D2B202009EC2B202009EC2B374331200C2
:1000D800CD74331200CD74321200CD74281200CDC5
:1000E800740C1200CD74011200CDC0027A02120005
:1000F80083D00222E49360061200C8A380F622444B
:100108004044800200CDC0E0E8C4540F44301200DF
:0C011800C8E8540F44301200C8D0E022A8
:10012400C0E0C0D0C000C001C002E4F538F539F524
:100134003AF53BF53C7A20E533A2E779047830E6DA
:1001440033F608D9FA79057838E636D4F608D9F9B9
:10015400DAE5D002D001D000D0D0D0E022C0E0C097
:10016400D0C000C001C002E4F538F539F53AF53BDA
:10017400F53C7A20E533A2E779047830E633F608D3
:10018400D9FA79057838C0D0E6243320E70224D0A0
:1001940020E30224FDD0D033F608D9EADAD6D0021F
:1001A400D001D000D0D0D0E022C0E0C0D0C000C088
:1001B40001C0027A207905C3783CE613C0D030E749
:1001C4000224D030E30224FDF618D0D0D9EC79040F
:1001D4007833E613F618D9FADADBD002D001D0006E
:1001E400D0D0D0E022C0E0C0D0E5302534F530E5F1
:1001F400313535F531E5323536F532E5333537F518
:1002040033D0D0D0E022C0E0C0D0C3E5309534F57F
:1002140030E5319535F531E5329536F532E53395EE
:1002240037F533D0D0D0E022C0E0C0D0C3E530955C
:1002340034E5319535E5329536E53395379200D07E
:10024400D0D0E022C0E0C0D0C3E5349530E5359588
:1002540031E5369532E53795339200D0D0D0E0229F
:10026400C0E0C0D0C200C3E53495307014E53595C4
:1002740031700EE53695327008E53795337002D249
:1002840000D0D0D0E02212026420000302024822EF
:1002940012026420000302022C22C0E0C0F0C0D08D
:1002A400C000C001C002C003E5308534F0A4F8A941
:1002B400F0E5318534F0A429F9E435F0FAE5308528
:1002C40035F0A429F9E5F03AFAE433FBE532853454
:1002D400F0A42AFAE5F03BFBE5318535F0A42AFACF
:1002E400E5F03BFBE5308536F0A42AFAE5F03BFB6C
:1002F400E5338534F0A42BFBE5328535F0A42BFBE4
:10030400E5318536F0A42BFBE5308537F0A42BFBD3
:100314008B338A3289318830D003D002D001D000A7
:10032400D0D0D0F0D0E022C0E0C0D0C000C001C026
:1003340002C003C0047C20E4F8F9FAFBC3E53033BF
:10034400F530E53133F531E53233F532E53333F564
:1003540033E833F8E933F9EA33FAEB33FBC3E895CE
:1003640034E99535EA9536EB95374013E89534F83A
:10037400E99535F9EA9536FAEB9537FB433001DC1C
:10038400BBD004D003D002D001D000D0D0D0E02222
:10039400D2A2C2A32279007A08E833F892A1D2A3A8
:1003A400A2A2E933F9C2A3DAF022C2A078011203AF
:1003B40099E5F0C454F0D2E7F8120399E95403FF25
:1003C4007855120399E9FED2A022C0E0E8C4540F84
:1003D4004430120046E8540F4430120046D0E02264
:1003E400784AD8FE227530007531007532007533B5
:1003F400007D6475F0001203AE7537007536008F0A
:10040400358E341201E91203E4DDE8753464753580
:100414000075360075370012032B22854130854262
:10042400317532007533007534007535107536003A
:1004340075370012029E75342C75350175360075BA
:10044400370012029E7534FF753503753600753713
:100454000012032B75343C75350F75360075370063
:1004640012032B7534167535007536007537001276
:1004740001E9853038E530D4F53D1201241204A198
:10048400C000A8391203CED000C000A8381203CE91
:10049400D000740D120046740A12004622C0E074A3
:1004A4000914120109D0E0C000A83912010ED000CD
:1004B400C000A83812010ED0002275C80075CDA95D
:1004C40075CC9A75CBA975CA9AE4F545F546D2ADB3
:1004D400D2CA22C2CFB290C0E0C0D00545E5457073
:1004E400020546E545B46446E546B40041D201E45C
:1004F400F545F546E547B409167400D4F547E548D3
:10050400B459197400D4F548308028240180262475
:1005140001D4F547B549CCD2910204E72401D4F5BE
:1005240048E549B400030204E7C2910204E7D0D0CD
:10053400D0E0322499D4F54775817F1204BE1200AD
:10054400D212002E754700754800754A00754B6439
:10055400D2AFC0E0740114120109D0E0C083C0829C
:10056400C0E09000591200FCD0E0D082D083120386
:100574009430015E75F0001203AE12041F8F428E98
:1005840041C201C0E0740114120107D0E0C000A808
:100594004812010ED000C0E0740314120107D0E029
:1005A400C000A84712010ED000C0E0740914120163
:1005B40007D0E0C000A84A12010ED000C0E0740CBD
:1005C40014120107D0E0C000A84912010ED00002A5
:1005D40005D6E54AB4001E75490020A415C0027A68
:1005E40032120083D00220A40930A4FD754A01759B
:1005F4004800020575E54AB4011B75490120A4129F
:10060400C0027A32120083D00220A40630A4FD7501
:100614004A02020575E54AB40210754902E54CC365
:1006240095485003754A03020575E54AB4031375EA
:10063400490A754800E54DC3953D5003754A0402C7
:100644000575E54AB40410754902E54EC395485052
:1006540003754A05020575E54AB4050D754900E5BB
:0C0664004FC3953D4003754A0002057528
:00000001FF
