:0300000002015AA0
:0100030032CA
:0100130032BA
:01001B0032B2
:0100230032AA
:03002B000200F5DB
:10002E00C00078B10000D8FCD00022C000C0017919
:10003E002D78A6D8FED9FADAF6D001D00022D2B3A6
:10004E0012002EC2B322A2E792B7A2E692B6A2E5A2
:10005E0092B5A2E492B412004C12002EA2E392B713
:10006E00A2E292B6A2E192B5A2E092B412004C22A4
:10007E00D2B2020054C2B2020054C2B374331200A0
:10008E008374331200837432120083742812008337
:10009E00740C1200837401120083C0027A021200E3
:1000AE0039D00222E493600612007EA380F6224429
:1000BE00404480020083C0E0E8C4540F4430120074
:1000CE007EE8540F443012007ED0E0223A0075C80C
:1000DE000075CDA975CC9A75CBA975CA9AE4F53081
:1000EE00F531D2ADD2CA22C2CFB290C0E0C0D00597
:1000FE0030E53070020531E530B4644BE531B400C3
:10010E0046D200E4F530F531E532B409167400D468
:10011E00F532E533B459197400D4F5333080232405
:10012E000180212401D4F532B534CCD2A2020105CE
:10013E002401D4F533E534B40003020105C2A20252
:10014E0001052499D4F532D0D0D0E03275817F12DA
:10015E0000DC75E60075E7007534087532007533FE
:10016E0000D2AF120088C0E07401141200BFD0E0BC
:10017E00D20020C51CC0027A32120039D00220C52E
:10018E001030C5FDC2CAE4F530F531F532D2CA8061
:10019E00033000DEC200C0E07408141200BFD0E0CD
:1001AE00C000A8321200C4D000C0E07406141200C1
:1001BE00BFD0E0C000A8331200C4D000C0E0740865
:1001CE00141200BFD0E0C083C082C0E09000DA12EB
:1001DE0000B2D0E0D082D083C0E07405141200BD0E
:0E01EE00D0E0C000A8341200C4D0000201808E
:00000001FF
