:0300000002090AE8
:0100030032CA
:0100130032BA
:03001B000203835A
:0100230032AA
:03002B000204B21A
:10002E00C00078B10000D8FCD00022C000C0017919
:10003E002D78A6D8FED9FADAF6D001D00022D2B3A6
:10004E0012002EC2B322A2E792B7A2E692B6A2E5A2
:10005E0092B5A2E492B412004C12002EA2E392B713
:10006E00A2E292B6A2E192B5A2E092B412004C22A4
:10007E00D2B2020054C2B2020054C2B374331200A0
:10008E008374331200837432120083742812008337
:10009E00740C1200837401120083C0027A021200E3
:1000AE0039D00222E493600612007EA380F6224429
:1000BE00404480020083C0E0E8C4540F4430120074
:0C00CE007EE8540F443012007ED0E02287
:1000DA00C0E0C0D0C000C001C002E4F546F547F553
:1000EA0048F549F54A7A20E533A2E779047830E6FB
:1000FA0033F608D9FA79057846E636D4F608D9F9F6
:10010A00DAE5D002D001D000D0D0D0E022C0E0C0E1
:10011A00D0C000C001C002E4F546F547F548F549EC
:10012A00F54A7A20E533A2E779047830E633F6080F
:10013A00D9FA79057846C0D0E6243320E70224D0DC
:10014A0020E30224FDD0D033F608D9EADAD6D00269
:10015A00D001D000D0D0D0E022C0E0C0D0C000C0D2
:10016A0001C0027A207905C3784AE613C0D030E785
:10017A000224D030E30224FDF618D0D0D9EC790459
:10018A007833E613F618D9FADADBD002D001D000B8
:10019A00D0D0D0E022C0E0C0D0E5302534F530E53B
:1001AA00313535F531E5323536F532E5333537F562
:1001BA0033D0D0D0E022C0E0C0D0C3E5309534F5CA
:1001CA0030E5319535F531E5329536F532E5339539
:1001DA0037F533D0D0D0E022C0E0C0D0C3E53095A7
:1001EA0034E5319535E5329536E53395379200D0C9
:1001FA00D0D0E022C0E0C0D0C3E5349530E53595D3
:10020A0031E5369532E53795339200D0D0D0E022E9
:10021A00C0E0C0D0C200C3E53495307014E535950E
:10022A0031700EE53695327008E53795337002D293
:10023A0000D0D0D0E02212021A2000030201FE22CE
:10024A0012021A2000030201E222C0E0C0F0C0D06C
:10025A00C000C001C002C003E5308534F0A4F8A98B
:10026A00F0E5318534F0A429F9E435F0FAE5308572
:10027A0035F0A429F9E5F03AFAE433FBE53285349E
:10028A00F0A42AFAE5F03BFBE5318535F0A42AFA19
:10029A00E5F03BFBE5308536F0A42AFAE5F03BFBB6
:1002AA00E5338534F0A42BFBE5328535F0A42BFB2E
:1002BA00E5318536F0A42BFBE5308537F0A42BFB1E
:1002CA008B338A3289318830D003D002D001D000F2
:1002DA00D0D0D0F0D0E022C0E0C0D0C000C001C071
:1002EA0002C003C0047C20E4F8F9FAFBC3E530330A
:1002FA00F530E53133F531E53233F532E53333F5AF
:10030A0033E833F8E933F9EA33FAEB33FBC3E89518
:10031A0034E99535EA9536EB95374013E89534F884
:10032A00E99535F9EA9536FAEB9537FB433001DC66
:10033A00BBD004D003D002D001D000D0D0D0E0226C
:10034A0053D6CE43D731D293D296C295C29053890F
:10035A000F438910758DFC758B1575F5FC75F315B2
:10036A00D2AB75A5A075A43A75AD8075AC0043A44F
:10037A0040E5A420E6FBD2AF22C0E0C0D0E54F455D
:10038A00504551601C74FF154FB54F071550B550B5
:10039A00021551D2901204402480F5AD43A4408046
:1003AA000CC28ED296C29075AD8043A440D0D0D0F4
:1003BA00E0321201637534057535007536007537FC
:1003CA00001202E17534227535567536007537000C
:1003DA00120254C28ED296C290C29674031204407C
:1003EA00E532120440E531120440E530120440754A
:1003FA005100755056754F20D290D28E2275343ADC
:10040A00753511753600753700120254C28ED296B0
:10041A00C290C2967403120440E532120440E531D8
:10042A00120440E530120440755100755056754F5C
:10043A0020D290D28E22339294D295A293C29592D0
:10044A00E0339294D295A293C29592E0339294D2D9
:10045A0095A293C29592E0339294D295A293C295B3
:10046A0092E0339294D295A293C29592E0339294F9
:10047A00D295A293C29592E0339294D295A293C256
:10048A009592E0339294D295A293C29592E0227506
:10049A00C80075CDA975CC9A75CBA975CA9AE4F529
:1004AA0052F553D2ADD2CA22C2CFB290C0E0C0D068
:1004BA000552E55270020553E552B46466E553B439
:1004CA000061D201E4F552F553E554B409147400FD
:1004DA00D4F554D202E555B499157400D4F55502F1
:1004EA0004C22401D4F554B557CED2910204C224D1
:1004FA0001D4F555E557D291B40017E556B4040A6C
:10050A007400D4F556D2030204C22401D4F556026B
:10051A0004C2C291E556B404F17400D4F556D2036C
:10052A000204C2D0D0D0E0322499D4F554D2A5C264
:10053A00A722C0E079007A08E833F892A1D2A7A2EC
:10054A00A5E933F9C2A7DAF0D0E02279DE78A6D895
:10055A00FED9FA438780759852759B00759AF4758F
:10056A009B1E223099FDC299F59922E493600612E6
:10057A00056DA380F62275F06484443012056DE59A
:10058A00F075F00A84443012056DE5F04430120526
:10059A006D22C2A0780112053CE5F0C454F0D2E7FE
:1005AA00F812053CE95403FF785512053CE9FED2DE
:1005BA00A022C0E0E8C4540F443012056DE8540F7D
:1005CA00443012056DD0E02275F064844430120084
:1005DA007EE5F075F00A84443012007EE5F044307E
:1005EA0012007E2275D108907F80E538F0A3E539A4
:1005FA00F0A3E53AF0A3E53BF0A37455F0A374AA7F
:10060A00F0A375D10043D24075D15075D1A075D1F0
:10061A000053D2BF2275386475390A753AC8753BDA
:10062A000A22907F84E493F8A3B855E9E493F8A3E7
:10063A00B8AAE2907F80E493F538A3E493F539A34E
:10064A00E493F53AA3E493F53BA3227B0A7A64790F
:10065A002D78A6D8FED9FADAF6DBF222784AD8FE45
:10066A00227530007531007532007533007D64756E
:10067A00F00012059C7537007536008F358E3412DE
:10068A00019F120666DDE87534647535007536001B
:10069A007537001202E122854B30854C31753200E4
:1006AA0075330075342A75351275360075370012A0
:1006BA0002547534F37535337536007537001202F6
:1006CA00E175341675350075360075370012019FCD
:1006DA00853046E530F53D1200DA854641854742C8
:1006EA00854843854944E545B40602800312071745
:1006FA00C000A8471205BCD000C000A8461205BC1D
:10070A00D000740D12056D740A12056D22C0E074D2
:10071A0006141200BDD0E0C000A8471200C4D000E1
:10072A00C000A8461200C4D0002248656C6C6F2C29
:10073A0020576F726C64210D0A00537461727469D8
:10074A006E672074656D7065726174757265206D6F
:10075A006561737572656D656E74732E2E2E0D0A42
:10076A00005265666C6F77204F76656E00436F6E38
:10077A0074726F6C6C65720020202020202020206B
:10078A0020202020202020200053657420526566F6
:10079A006C6F7720437572766500506172616D6582
:1007AA0074657273202020202020002E2020200033
:1007BA0053657420536F616B2054656D702020203F
:1007CA00002043202020202020202020202020201C
:1007DA00200053657420536F616B2054696D652046
:1007EA002020002053656320202020202020202064
:1007FA0020202000536574205265666C6F77205460
:10080A00656D7020002043202020202020202020F9
:10081A00202020202000536574205265666C6F7773
:10082A002054696D65200020536563202020202014
:10083A00202020202020200046534D206E6F742057
:10084A00636F6D706C65746500436F6E6669726D77
:10085A002053657474696E67730054454D503A208D
:10086A00202020432000743A20207300503A00537D
:10087A003A0020202020200053303A205741495482
:10088A00494E4720202020200053313A2052414D22
:10089A005020544F20534F414B0053323A20534F6C
:1008AA00414B20202020202020200053333A205280
:1008BA00414D5020544F205245464C0053343A2063
:1008CA005245464C30572020202020200053353AEC
:1008DA0020434F4F4C444F574E20202020002A2AB5
:1008EA002A2A2A41424F525445442A2A2A2A004394
:1008FA004845434B20544845524D4F43504C2000E5
:10090A0075817F75E60075E70075CE0075CF0075B5
:10091A00C60075C70075BE0075BF001200881206B2
:10092A002CC0E07403141200BFD0E0C083C082C0A0
:10093A00E090076B1200B2D0E0D082D083C0E0749E
:10094A0003141200BDD0E0C083C082C0E0900777D4
:10095A001200B2D0E0D082D08312065575540075C9
:10096A005500754500753C3CC0E07401141200BF87
:10097A00D0E0C083C082C0E09007931200B2D0E0FA
:10098A00D082D083C0E07401141200BDD0E0C083CD
:10099A00C082C0E09007A41200B2D0E0D082D08317
:1009AA00120655C0E0740B141200BDD0E0C083C01B
:1009BA0082C0E09007B51200B2D0E0D082D0831294
:1009CA000655C0E0740C141200BDD0E0C083C0828A
:1009DA00C0E09007B51200B2D0E0D082D0831206F0
:1009EA0055C0E0740D141200BDD0E0C083C082C0AF
:1009FA00E09007B51200B2D0E0D082D0831206553B
:100A0A00C0E07401141200BFD0E0C083C082C0E00D
:100A1A009007BA1200B2D0E0D082D083C0E074044A
:100A2A00141200BDD0E0C083C082C0E09007CB1290
:100A3A0000B2D0E0D082D083C0E07401141200BDAD
:100A4A00D0E0E5381205D220A423C0027A6412004D
:100A5A0039D00220A41730A4FD2085041538800A55
:100A6A00053805380538053805381205EE20841290
:100A7A00C0027A64120039D0022084063084FD0252
:100A8A000C6620A60FC0027A64120039D00220A692
:100A9A000330A603020A0AC0E07401141200BFD090
:100AAA00E0C083C082C0E09007DC1200B2D0E0D080
:100ABA0082D083C0E07404141200BDD0E0C083C0A9
:100ACA0082C0E09007ED1200B2D0E0D082D083C09D
:100ADA00E07401141200BDD0E0E5391205D220A459
:100AEA0023C0027A64120039D00220A41730A4FD70
:100AFA002085041539800A0539053905390539056E
:100B0A00391205EE208412C0027A64120039D0022A
:100B1A002084063084FD020C6620A60FC0027A6487
:100B2A00120039D00220A60330A603020AA1C0E0AF
:100B3A007401141200BFD0E0C083C082C0E09007E5
:100B4A00FE1200B2D0E0D082D083C0E07404141246
:100B5A0000BDD0E0C083C082C0E090080F1200B28E
:100B6A00D0E0D082D083C0E07401141200BDD0E07E
:100B7A00E53A1205D220A423C0027A64120039D0C1
:100B8A000220A41730A4FD208504153A800A053AEC
:100B9A00053A053A053A053A1205EE208412C002D2
:100BAA007A64120039D0022084063084FD020C6671
:100BBA0020A60FC0027A64120039D00220A60330A0
:100BCA00A603020B38C0E07401141200BFD0E0C0C3
:100BDA0083C082C0E09008201200B2D0E0D082D058
:100BEA0083C0E07404141200BDD0E0C083C082C088
:100BFA00E09008311200B2D0E0D082D083C0E07415
:100C0A0001141200BDD0E0E53B1205D220A423C096
:100C1A00027A64120039D00220A41730A4FD20857C
:100C2A0004153B800A053B053B053B053B053B128A
:100C3A0005EE20840FC0027A64120039D0022084A3
:100C4A000330841820A60FC0027A64120039D00239
:100C5A0020A60330A603020BCF020A0AC0E07401E1
:100C6A00141200BFD0E0C083C082C0E090085312C3
:100C7A0000B2D0E0D082D083C0E07401141200BD6B
:100C8A00D0E0E5381205D2C0E07405141200BDD0D8
:100C9A00E0E5391205D2C0E07409141200BDD0E0B3
:100CAA00E53A1205D2C0E0740D141200BDD0E0E599
:100CBA003B1205D220840FC0027A64120039D00296
:100CCA00208403308403020C668000120499120304
:100CDA004A1205557554007555007545007556003C
:100CEA00C204C205C206C207C208C20385393075EA
:100CFA0031007532007533001200DA854639853BBA
:100D0A00307531007532007533001200DA85463BC2
:100D1A00D2AFC0E07401141200BDD0E0C083C0821B
:100D2A00C0E09008641200B2D0E0D082D083C0E064
:100D3A007401141200BFD0E0C083C082C0E09008E2
:100D4A00821200B2D0E0D082D083120537208315F8
:100D5A00C0027A32120039D0022083093083FD752D
:100D6A00450602105D30015F75F00012059C1206FF
:100D7A00A18F4C8E4BC201E545B40603020DB8C0E3
:100D8A00E0740C141200BDD0E0C083C082C0E090B1
:100D9A0008701200B2D0E0D082D083C0E0740E1482
:100DAA001200BDD0E0C000A8551200C4D000300324
:100DBA00168541468542478543488544491203BC06
:100DCA00C2038003020DD1E545B4004675570020E1
:100DDA00A434C0027A32120039D00220A42830A4E6
:100DEA00FDC0E07401141200BFD0E0C083C082C00D
:100DFA00E09008931200B2D0E0D082D083755500FB
:100E0A0075450175570A020D57020EB4754506025B
:100E1A00105DE545B401F275308075310075320018
:100E2A0075330085553475350075360075370012EF
:100E3A0001E22000D78538307531007532007533EC
:100E4A0000853D34853E35853F368540371201E2BF
:100E5A00300054C0E07401141200BFD0E0C083C057
:100E6A0082C0E09008A41200B2D0E0D082D083C041
:100E7A00E0740C141200BDD0E0C083C082C0E090C0
:100E8A0008701200B2D0E0D082D083C0E0740E1491
:100E9A001200BDD0E0C000A8551200C4D00075579A
:100EAA00017555007545020210AEE545B4025F852D
:100EBA003930753100753200753300855534753512
:100ECA00007536007537001201E230003EC0E0744A
:100EDA0001141200BFD0E0C083C082C0E09008B500
:100EEA001200B2D0E0D082D083C0E0740C14120099
:100EFA00BDD0E0C083C082C0E090087C1200B2D0AE
:100F0A00E0D082D08375570A7545030210AEE545D5
:100F1A00B40375853A307531007532007533008532
:100F2A003D34853E35853F368540371201E2300033
:100F3A0054C0E07401141200BFD0E0C083C082C064
:100F4A00E09008C61200B2D0E0D082D083C0E0742C
:100F5A000C141200BDD0E0C083C082C0E0900870BB
:100F6A001200B2D0E0D082D083C0E0740E14120016
:100F7A00BDD0E0C000A8551200C4D0007555007558
:100F8A0057027545040210AEE545B4045F853B304F
:100F9A007531007532007533008555347535007525
:100FAA0036007537001201E230003EC0E0740114C9
:100FBA001200BFD0E0C083C082C0E09008D7120000
:100FCA00B2D0E0D082D083C0E0740C141200BDD03D
:100FDA00E0C083C082C0E090087C1200B2D0E0D0AA
:100FEA0082D0837557007545050210AEE545B405F4
:100FFA005FC0E0740C141200BDD0E0C083C082C090
:10100A00E090087C1200B2D0E0D082D083853C30D8
:10101A00753100753200753300853D34853E35855E
:10102A003F368540371201FE300022C0E0740114B9
:10103A001200BFD0E0C083C082C0E09008821200D4
:10104A00B2D0E0D082D0837545007557000210AE49
:10105A0002109E755500754506755700C0E074016B
:10106A00141200BFD0E0C083C082C0E09008E8122A
:10107A0000B2D0E0D082D083C0E07401141200BD67
:10108A00D0E0C083C082C0E09008F91200B2D0E07C
:10109A00D082D083E545B4060880067557007545A9
:1010AA0000020D57E545B4011720047C753004751C
:1010BA003101753200753300120407D2040211326D
:1010CA00B4021720056275301D753101753200753D
:1010DA003300120407D205021132B403172006485E
:1010EA00753009753101753200753300120407D263
:1010FA0006021132B4041720072E75300E7531011D
:10110A00753200753300120407D207021132B40592
:10111A0017200814753013753101753200753300C4
:0B112A00120407D208021132020D5718
:00000001FF
