:030000000204FDFA
:03002B0002049834
:10002E0079DE78A6D8FED9FA438780759852759BEB
:10003E0000759AF4759B1E223099FDC299F599228E
:10004E00E4936006120046A380F622202054454D0C
:10005E00503A20787878204320202020007AC879E2
:0A006E00647864D8FED9FADAF622AD
:10007800C00078B10000D8FCD00022C000C00179CF
:100088002D78A6D8FED9FADAF6D001D00022D2B35C
:10009800120078C2B322A2E792B7A2E692B6A2E50E
:1000A80092B5A2E492B4120096120078A2E392B735
:1000B800A2E292B6A2E192B5A2E092B41200962210
:1000C800D2B202009EC2B202009EC2B374331200C2
:1000D800CD74331200CD74321200CD74281200CDC5
:1000E800740C1200CD74011200CDC0027A02120005
:1000F80083D00222E49360061200C8A380F622444B
:100108004044800200CDC0E0E8C4540F44301200DF
:0C011800C8E8540F44301200C8D0E022A8
:10012400C0E0C0D0C000C001C002E4F538F539F524
:100134003AF53BF53C7A20E533A2E779047830E6DA
:1001440033F608D9FA79057838E636D4F608D9F9B9
:10015400DAE5D002D001D000D0D0D0E022C0E0C097
:10016400D0C000C001C002E4F538F539F53AF53BDA
:10017400F53C7A20E533A2E779047830E633F608D3
:10018400D9FA79057838C0D0E6243320E70224D0A0
:1001940020E30224FDD0D033F608D9EADAD6D0021F
:1001A400D001D000D0D0D0E022C0E0C0D0C000C088
:1001B40001C0027A207905C3783CE613C0D030E749
:1001C4000224D030E30224FDF618D0D0D9EC79040F
:1001D4007833E613F618D9FADADBD002D001D0006E
:1001E400D0D0D0E022C0E0C0D0E5302534F530E5F1
:1001F400313535F531E5323536F532E5333537F518
:1002040033D0D0D0E022C0E0C0D0C3E5309534F57F
:1002140030E5319535F531E5329536F532E53395EE
:1002240037F533D0D0D0E022C0E0C0D0C3E530955C
:1002340034E5319535E5329536E53395379200D07E
:10024400D0D0E022C0E0C0D0C3E5349530E5359588
:1002540031E5369532E53795339200D0D0D0E0229F
:10026400C0E0C0D0C200C3E53495307014E53595C4
:1002740031700EE53695327008E53795337002D249
:1002840000D0D0D0E02212026420000302024822EF
:1002940012026420000302022C22C0E0C0F0C0D08D
:1002A400C000C001C002C003E5308534F0A4F8A941
:1002B400F0E5318534F0A429F9E435F0FAE5308528
:1002C40035F0A429F9E5F03AFAE433FBE532853454
:1002D400F0A42AFAE5F03BFBE5318535F0A42AFACF
:1002E400E5F03BFBE5308536F0A42AFAE5F03BFB6C
:1002F400E5338534F0A42BFBE5328535F0A42BFBE4
:10030400E5318536F0A42BFBE5308537F0A42BFBD3
:100314008B338A3289318830D003D002D001D000A7
:10032400D0D0D0F0D0E022C0E0C0D0C000C001C026
:1003340002C003C0047C20E4F8F9FAFBC3E53033BF
:10034400F530E53133F531E53233F532E53333F564
:1003540033E833F8E933F9EA33FAEB33FBC3E895CE
:1003640034E99535EA9536EB95374013E89534F83A
:10037400E99535F9EA9536FAEB9537FB433001DC1C
:10038400BBD004D003D002D001D000D0D0D0E02222
:10039400D2A2C2A32279007A08E833F892A1D2A3A8
:1003A400A2A2E933F9C2A3DAF022C2A078011203AF
:1003B40099E5F0C454F0D2E7F8120399E95403FF25
:1003C4007855120399E9FED2A022C0E0E8C4540F84
:1003D4004430120046E8540F4430120046D0E02264
:1003E400853D45C0E0740914120109D0E0C000A89D
:1003F4004512010ED000228541308542317532000C
:100404007533007534517535007536007537001233
:10041400029E753410753527753600753700120342
:100424002B7534167535007536007537001201E9E1
:10043400853038E530D4F53D1201241204621200EF
:100444006BC000A8381203CED000C000A839120334
:10045400CED000740D120046740A12004622C0E089
:10046400740914120109D0E0C000A83912010ED099
:1004740000C000A83812010ED0002275C80075CD46
:10048400A975CC9A75CBA975CA9AE4F549F54AD2EF
:10049400ADD2CA22C2CFB290C0E0C0D00549E5496E
:1004A4007002054AE549B4644BE54AB40046D201FA
:1004B400E4F549F54AE54BB409167400D4F54BE567
:1004C4004CB459197400D4F54C3080232401802194
:1004D4002401D4F54BB54DCCD2A20204A82401D4F6
:1004E400F54CE54DB400030204A8C2A20204A824FA
:1004F40099D4F54BD0D0D0E03275817F12047F754A
:100504004B00754C00D2AF75817F1200D212002EC1
:10051400C0E0740114120109D0E0C083C082C0E0BD
:100524009000591200FCD0E0D082D083120394755D
:10053400F0001203AE8E428F411203FB3001F0C271
:1005440001C0E0740814120107D0E0C000A84B12E7
:10055400010ED000C0E0740614120107D0E0C00000
:0A056400A84C12010ED0000205336E
:00000001FF
